:100000000C9434000C9432010C945F010C94510058
:100010000C9451000C9451000C9451000C9451001C
:100020000C9451000C9451000C9451000C9451000C
:100030000C9451000C9451000C9451000C945100FC
:100040000C94AF000C9451000C94B3010C9451002B
:100050000C9451000C9451000C9451000C945100DC
:100060000C9451000C94510011241FBECFEFD8E026
:10007000DEBFCDBF11E0A0E0B1E0EEEBF7E002C0E3
:1000800005900D92AE30B107D9F711E0AEE0B1E0C6
:1000900001C01D92AF39B107E1F70E9453000C94E3
:1000A000DD030C9400006F927F928F92AF92CF92FB
:1000B000EF92FF920F931F93DF93CF93CDB7DEB7ED
:1000C00061970FB6F894DEBF0FBECDBF00D085E0BC
:1000D000EDB7FEB7818381E082833E010894611C05
:1000E000711CC30165EC70E044EC50E020EC30E0A2
:1000F00001EC10E0B6ECEB2EF12CA4E0CA2EF3E0FC
:10010000AF2EE7E08E2E0E94DB010F900F900E9431
:10011000F700C30140E855E260E070E00E9406028B
:10012000C30160E071E00E943403C3010E9429030F
:10013000C3010E94FF0280E090E061960FB6F89440
:10014000DEBF0FBECDBFCF91DF911F910F91FF900A
:10015000EF90CF90AF908F907F906F9008951F9207
:100160000F920FB60F9211242F933F938F939F936B
:10017000AF93BF938091120190911301A09114014C
:10018000B0911501309116010196A11DB11D232FCB
:100190002D5F2D3720F02D570196A11DB11D209305
:1001A00016018093120190931301A0931401B09350
:1001B000150180910E0190910F01A0911001B09155
:1001C00011010196A11DB11D80930E0190930F01A5
:1001D000A0931001B0931101BF91AF919F918F91A6
:1001E0003F912F910F900FBE0F901F90189578940C
:1001F00084B5826084BD84B5816084BD85B582602C
:1002000085BD85B5816085BDEEE6F0E080818160C9
:100210008083E1E8F0E010828081826080838081C9
:1002200081608083E0E8F0E0808181608083E1EBA1
:10023000F0E0808184608083E0EBF0E08081816089
:100240008083EAE7F0E0808184608083808182603F
:100250008083808181608083808180688083109228
:10026000C10008951F920F920FB60F9211242F9381
:100270003F934F935F936F937F938F939F93AF932E
:10028000BF93EF93FF938091170190911801892BF1
:1002900029F0E0911701F09118010995FF91EF9174
:1002A000BF91AF919F918F917F916F915F914F918E
:1002B0003F912F910F900FBE0F901F9018951F9296
:1002C0000F920FB60F9211242F933F934F935F938A
:1002D0006F937F938F939F93AF93BF93EF93FF930E
:1002E0008091190190911A01892B29F0E09119014F
:1002F000F0911A010995FF91EF91BF91AF919F91F4
:100300008F917F916F915F914F913F912F910F90BE
:100310000FBE0F901F9018950F931F93CF93DF93ED
:10032000482FFB018B0100581F4FD801CD91DC9164
:10033000CE01019660E870E00E9479039C01EE57BF
:10034000FF4F80819181E258F0402817390731F042
:10035000CE0FDF1F4883F80131832083DF91CF91D7
:100360001F910F9108951F920F920FB60F921124B3
:100370002F933F934F935F936F937F938F939F93AD
:10038000AF93BF93EF93FF938091C6006BE171E051
:100390000E948C01FF91EF91BF91AF919F918F913E
:1003A0007F916F915F914F913F912F910F900FBE71
:1003B0000F901F9018958F92AF92CF92EF92FF926D
:1003C0000F931F93DF93CF93CDB7DEB7FC018BE183
:1003D00091E0918380837383628355834483378361
:1003E000268311870087F386E286C486A5868686E3
:1003F0008C8587878D85808BCF91DF911F910F91A1
:10040000FF90EF90CF90AF908F9008955F926F9292
:100410007F928F929F92AF92BF92CF92DF92EF9294
:10042000FF920F931F93CF93DF93EC013A014B019F
:10043000413482E458078FE0680780E078070CF0C9
:100440007FC060E874E88EE190E0A40193010E940F
:10045000AE032150304040405040CA01B90122E073
:1004600030E040E050E00E94AE0359016A01A6016D
:100470009501209530954095509594E0220F331FBB
:10048000441F551F9A95D1F760E074E284EF90E025
:100490000E94AE03CA01B9012FEF30E040E050E006
:1004A0000E945A03A40193010E94AE03C901815026
:1004B0009F4F181619061CF4522E5A9403C0552447
:1004C0005394521A60E079E08DE390E0A401930127
:1004D0000E94AE032150304040405040CA01B90153
:1004E00022E030E040E050E00E94AE0320953095DD
:1004F0004095509583E0220F331F441F551F8A9566
:10050000D1F760E074E284EF90E00E94AE03CA018C
:10051000B9012FEF30E040E050E00E945A03A401FF
:1005200093010E94AE03C90181509F4F181619060E
:100530001CF4822F815002C081E0821B851500F5DA
:10054000EE81FF8181E090E0088802C0880F991F4A
:100550000A94E2F7808360E079E08DE390E0A40103
:1005600093010E94AE032150304040405040CA01E8
:10057000B90122E030E040E050E00E94AE0304C048
:10058000EE81FF8110829501EA81FB813083EC814D
:10059000FD812083E885F985208141E050E0CA0192
:1005A0000C8402C0880F991F0A94E2F7282B20833D
:1005B000E885F9852081CA010D8402C0880F991F42
:1005C0000A94E2F7282B2083E885F98580810E8440
:1005D00002C0440F551F0A94E2F7842B8083DF91F9
:1005E000CF911F910F91FF90EF90DF90CF90BF9030
:1005F000AF909F908F907F906F905F900895FC01D7
:10060000A085B1854C9121E030E0C901048402C08D
:10061000880F991F0A94E2F7809584238C93A08514
:10062000B1854C91C901058402C0880F991F0A94B5
:10063000E2F7809584238C93A085B1858C91068404
:1006400002C0220F331F0A94E2F7209528232C932F
:100650000895FC010190F081E02DEE57FF4F80815D
:100660009181929382930895CF93DF93DC01EB0104
:1006700061E070E019C01696ED91FC9117979B010F
:100680001F960C901F9702C0220F331F0A94E2F7A7
:10069000808190E082239323892BD1F321961A96AF
:1006A000ED91FC911B9740834881442321F7DF9112
:1006B000CF910895629FD001739FF001829FE00D5A
:1006C000F11D649FE00DF11D929FF00D839FF00DD1
:1006D000749FF00D659FF00D9927729FB00DE11D7D
:1006E000F91F639FB00DE11DF91FBD01CF0111245A
:1006F000089597FB092E07260AD077FD04D049D02C
:1007000006D000201AF4709561957F4F0895F6F792
:10071000909581959F4F0895A1E21A2EAA1BBB1BAD
:10072000FD010DC0AA1FBB1FEE1FFF1FA217B307BD
:10073000E407F50720F0A21BB30BE40BF50B661FD3
:10074000771F881F991F1A9469F760957095809597
:1007500090959B01AC01BD01CF01089597FB092E37
:1007600005260ED057FD04D0D7DF0AD0001C38F480
:1007700050954095309521953F4F4F4F5F4F0895CD
:10078000F6F790958095709561957F4F8F4F9F4FAD
:100790000895AA1BBB1B51E107C0AA1FBB1FA617C8
:1007A000B70710F0A61BB70B881F991F5A95A9F71A
:0E07B00080959095BC01CD010895F894FFCF7F
:0E07BE0048656C6C6F20576F726C64210000F0
:00000001FF
